:1000000009C0DFC015C014C013C012C011C010C099
:1000100010C00EC011241FBECFE9CDBF20E0A0E666
:10002000B0E001C01D92A536B207E1F7EAD0B4C135
:10003000E7CF1F920F920FB60F9211248F939F93C9
:10004000AF93BF938091610090916200A091630093
:10005000B09164004096A11DB11D80936100909302
:100060006200A0936300B0936400BF91AF919F9131
:100070008F910F900FBE0F901F90189581B58061E2
:1000800081BD81B5806481BD789408950F931F93DD
:100090008B019C014091610050916200609163006E
:1000A000709164008091610090916200A091630062
:1000B000B0916400841B950BA60BB70B80179107BA
:1000C000A207B30778F31F910F910895B89A85B7E7
:1000D000806485BF81E88FBD81E083BF089566237A
:1000E00059F0262F220F620F262F2295207F620FB4
:1000F000FC01608366BF0895FC01808186BF08957E
:100100009C0186B78F3F21F461E0C901E8DF0895C3
:1001100086B763E30ED161E0680FC901E0DF08959F
:1001200026B7222311F016BE089560E0D8DF0895A7
:10013000EF92FF920F931F93CF93DF93772314F4E3
:10014000615F7F4FEB01D595C795D595C795D5953F
:10015000C795D595C795FC01808190E0BE01F5D08B
:1001600016B7111103C0DD23ACF424C0DD2314F154
:10017000062F862F6C2FD4D0182F16BF60E170E0A9
:1001800080E090E083DF2197101BCF3FFFEFDF0778
:10019000A1F710C0062FE12CF12C16BF60E170E032
:1001A00080E090E073DF8FEFE81AF80A100FCE15A9
:1001B000DF059CF7DF91CF911F910F91FF90EF909A
:1001C00008951F920F920FB60F9211248F93809172
:1001D00060008F5F809360008F910F900FBE0F9033
:1001E0001F901895BA98C29A83E085BF80E48BBFB0
:1001F000789408959091600081E0911101C080E0B1
:100200000895CF93DF931F92CDB7DD27CE010196DE
:100210005DDF34DFE7DF16BE6CE271E080E090E086
:1002200035DF10E0612FCE01019659DF68EC70E0F8
:1002300080E090E02BDF1F5F1630A1F715E0612F03
:10024000CE0101964CDF68EC70E080E090E01EDFAC
:100250001150A8F716BECEDF8823E9F36CED70E0ED
:1002600080E090E013DF809160001092600090E0E9
:100270008130910531F460E273E0CE01019658DFE0
:10028000EACF029744F3CE0101964ADF6CED70E0AD
:1002900080E090E0FBDECE01019642DF6CED70E085
:1002A00080E090E0F3DECE0101963ADF6CED70E085
:1002B00080E090E0EBDECE01019632DF9BDF882309
:1002C000E9F36CED70E080E090E0E0DE80916000AA
:1002D0001092600090E08130910521F4CE010196EA
:1002E0000FDFECCF029754F3CE01019619DF6CEDCE
:1002F00070E080E090E0CADECE01019611DF6CED87
:1003000070E080E090E0C2DECE01019609DF6CED86
:1003100070E080E090E0BADECE01019601DF9BCF75
:10032000002480FD060E660F11F08695D1F7802D12
:100330000895991B79E004C0991F961708F0961B41
:10034000881F7A95C9F78095089597FB072E16F4B4
:10035000009406D077FD08D00BD007FC05D03EF402
:10036000909581959F4F0895709561957F4F089561
:10037000AA1BBB1B51E107C0AA1FBB1FA617B707CB
:1003800010F0A61BB70B881F991F5A95A9F78095E7
:0C0390009095BC01CD010895F894FFCFBA
:00000001FF
