S0140000696C6C756D696E6174696F6E2E73726563FB
S113000009C044C015C014C013C012C011C010C030
S11300105DC00EC011241FBECFE9CDBF20E0A0E615
S1130020B0E001C01D92A636B207E1F79CD00BC127
S1130030E7CFB89A85B7806485BF83EA8FBD81E036
S113004083BF0895882359F0982F990F890F982F0B
S11300509295907F890F8093600086BF0895809168
S1130060600086BF089586B78F3F11F416BE0895C9
S113007086B763E3DCD08F5FE5DF089586B7882316
S113008011F016BE089580E0DDDF08951F920F92EF
S11300900FB60F9211248F93809165008F5F809328
S11300A065008F910F900FBE0F901F901895BA980E
S11300B0C29A83E085BF80E48BBF789408959091C1
S11300C0650081E0911101C080E008951F920F92B4
S11300D00FB60F9211248F939F93AF93BF93809188
S11300E0610090916200A0916300B0916400409619
S11300F0A11DB11D8093610090936200A0936300E1
S1130100B0936400BF91AF919F918F910F900FBEF8
S11301100F901F90189581B5806181BD81B5806471
S113012081BD789408950F931F938B019C01409196
S1130130610050916200609163007091640080914D
S1130140610090916200A0916300B0916400841BEF
S1130150950BA60BB70B80179107A207B30778F38B
S11301601F910F910895D7DF64DFA1DF16BE6CE203
S113017071E080E090E0D7DFC0E08C2F63DF68ECB3
S113018070E080E090E0CFDFCF5FC630B1F716BEFD
S113019096DF8823E9F36CED70E080E090E0C3DF44
S11301A0809165001092650090E08130910511F412
S11301B065DFEECF029764F361DF6CED70E080E001
S11301C090E0B1DF5BDF6CED70E080E090E0ABDFEE
S11301D055DF6CED70E080E090E0A5DF4FDF6FDF6E
S11301E08823E9F36CED70E080E090E09CDF80917F
S11301F065001092650090E08130910511F433DFC1
S1130200EECF029764F33ADF6CED70E080E090E0AB
S11302108ADF34DF6CED70E080E090E084DF2EDF75
S11302206CED70E080E090E07EDF28DFB1CF991BB9
S113023079E004C0991F961708F0961B881F7A95D9
S10D0240C9F780950895F894FFCFE4
S9030000FC
