S0140000696C6C756D696E6174696F6E2E73726563FB
S113000009C049C015C014C013C012C011C010C02B
S113001062C00EC011241FBECFE9CDBF20E0A0E610
S1130020B0E001C01D92A636B207E1F7A1D012C11B
S1130030E7CFB89A85B7806485BF83EA8FBD81E036
S113004083BF0895882361F0982F990F890F982F03
S11300509295907F890F80936000809586BF089564
S113006080916000809586BF089586B7811103C092
S113007081E0E8DF089586B7809563E3DFD08F5F82
S1130080E1DF089586B78F3F19F08FEF86BF08959B
S113009080E0D8DF08951F920F920FB60F921124BB
S11300A08F93809165008F5F809365008F910F908F
S11300B00FBE0F901F901895BA98C29A83E085BF1F
S11300C080E48BBF789408959091650081E091114C
S11300D001C080E008951F920F920FB60F92112471
S11300E08F939F93AF93BF9380916100909162002F
S11300F0A0916300B09164004096A11DB11D80934E
S1130100610090936200A0936300B0936400BF9178
S1130110AF919F918F910F900FBE0F901F901895E4
S113012081B5806181BD81B5806481BD7894089575
S11301300F931F938B019C014091610050916200C9
S113014060916300709164008091610090916200FD
S1130150A0916300B0916400841B950BA60BB70BB0
S113016080179107A207B30778F31F910F910895A1
S1130170D7DF5FDFA1DF8FEF86BF6CE271E080E045
S113018090E0D6DFC0E08C2F5DDF68EC70E080E0AB
S113019090E0CEDFCF5FC630B1F78FEF86BF94DF3C
S11301A08823E9F36CED70E080E090E0C1DF80919A
S11301B065001092650090E08130910511F462DFD2
S11301C0EECF029764F35EDF6CED70E080E090E0C8
S11301D0AFDF58DF6CED70E080E090E0A9DF52DF24
S11301E06CED70E080E090E0A3DF4CDF6DDF8823EE
S11301F0E9F36CED70E080E090E09ADF80916500B7
S11302001092650090E08130910511F42EDFEECF5D
S1130210029764F337DF6CED70E080E090E088DFF4
S113022031DF6CED70E080E090E082DF2BDF6CED7D
S113023070E080E090E07CDF25DFB1CF991B79E0AE
S113024004C0991F961708F0961B881F7A95C9F762
S10B025080950895F894FFCF96
S9030000FC
