:1000000009C0E3C015C014C013C012C011C010C095
:1000100010C00EC011241FBECFE9CDBF20E0A0E666
:10002000B0E001C01D92A536B207E1F7EED0AEC137
:10003000E7CF1F920F920FB60F9211248F939F93C9
:10004000AF93BF938091610090916200A091630093
:10005000B09164004096A11DB11D80936100909302
:100060006200A0936300B0936400BF91AF919F9131
:100070008F910F900FBE0F901F90189581B58061E2
:1000800081BD81B5806481BD789408950F931F93DD
:100090008B019C014091610050916200609163006E
:1000A000709164008091610090916200A091630062
:1000B000B0916400841B950BA60BB70B80179107BA
:1000C000A207B30778F31F910F910895B89A85B7E7
:1000D000806485BF83EA8FBD81E083BF0895FC0102
:1000E000662359F0862F880F680F962F9295907F80
:1000F000690F6083609566BF08958081809586BF93
:1001000008959C0186B7811104C061E0C901E7DF51
:10011000089586B7809563E306D161E0680FC90151
:10012000DEDF089526B72F3F19F08FEF86BF0895C1
:1001300060E0D5DF0895EF92FF920F931F93CF9366
:10014000DF93772314F4615F7F4FEB01D595C7955B
:10015000D595C795D595C795D595C795FC0180814F
:1001600090E0BE01ECD016B71F3F19F4DD23B4F4C4
:1001700025C0DD231CF1062F862F6C2FCBD0182F26
:10018000109516BF60E170E080E090E07FDF21977E
:10019000100FCF3FFFEFDF07A1F710C0062FE12CB4
:1001A000F12C16BF60E170E080E090E06FDF8FEF30
:1001B000E81AF80A101BCE15DF059CF7DF91CF91E6
:1001C0001F910F91FF90EF9008951F920F920FB61D
:1001D0000F9211248F93809160008F5F8093600055
:1001E0008F910F900FBE0F901F901895BA98C29ADA
:1001F00083E085BF80E48BBF789408959091600080
:1002000081E0911101C080E00895CF93DF931F92A8
:10021000CDB7DD2733DFCE01019658DFE7DF8FEF63
:1002200086BF6CE271E080E090E030DF10E0612F8B
:10023000CE01019654DF68EC70E080E090E026DFAC
:100240001F5F1630A1F78FEF86BFD8DF8823E9F351
:100250006CED70E080E090E019DF8091600010921A
:10026000600090E08130910531F460E273E0CE01EE
:10027000019661DFEACF029744F3CE01019652DF87
:100280006CED70E080E090E001DFCE0101964ADF86
:100290006CED70E080E090E0F9DECE01019642DF87
:1002A0006CED70E080E090E0F1DECE0101963ADF87
:1002B000A5DF8823E9F36CED70E080E090E0E6DEF6
:1002C000809160001092600090E08130910521F4EF
:1002D000CE01019616DFECCF029754F3CE010196C2
:1002E00021DF6CED70E080E090E0D0DECE01019681
:1002F00019DF6CED70E080E090E0C8DECE01019681
:1003000011DF6CED70E080E090E0C0DECE01019680
:1003100009DF9BCF002480FD060E660F11F0869545
:10032000D1F7802D0895991B79E004C0991F961785
:1003300008F0961B881F7A95C9F78095089597FB5A
:10034000072E16F4009406D077FD08D00BD007FCDA
:1003500005D03EF4909581959F4F089570956195D5
:100360007F4F0895AA1BBB1B51E107C0AA1FBB1FEB
:10037000A617B70710F0A61BB70B881F991F5A9531
:10038000A9F780959095BC01CD010895F894FFCF11
:00000001FF
