:1000000009C046C015C014C013C012C011C010C032
:100010005FC00EC011241FBECFE9CDBF20E0A0E617
:10002000B0E001C01D92A736B207E1F79ED001C132
:10003000E7CF81E087BB93EA9FBD83BF089516BEDB
:1000400010926600089591E0909366008093650099
:10005000982F990F890F982F9295907F890F86BFBF
:10006000089580916500853020F0E9DF10926500E9
:1000700008958F5F80936500E6DF089580916600A4
:10008000811104C080916500DEDF0895D8DF0895F6
:100090001F920F920FB60F9211248F9380916400DC
:1000A0008F5F809364008F910F900FBE0F901F9011
:1000B0001895BA98C29A83E085BF80E48BBF789484
:1000C00008959091640081E0911101C080E008954D
:1000D0001F920F920FB60F9211248F939F93AF939D
:1000E000BF938091600090916100A0916200B091F7
:1000F00063004096A11DB11D809360009093610044
:10010000A0936200B0936300BF91AF919F918F91D4
:100110000F900FBE0F901F90189581B5806181BD23
:1001200081B5806481BD789408950F931F938B01EE
:100130009C0140916000509161006091620070915B
:1001400063008091600090916100A0916200B09185
:100150006300841B950BA60BB70B80179107A207B2
:10016000B30778F31F910F910895D7DF62DFA1DF06
:1001700066DF6CE271E080E090E0D7DFC0E08C2FBA
:1001800062DF68EC70E080E090E0CFDFCF5FC630E8
:10019000B1F755DF96DF8823E9F36CED70E080E07E
:1001A00090E0C3DF809164001092640090E08130A1
:1001B000910511F463DFEECF029764F35FDF6CED1E
:1001C00070E080E090E0B1DF59DF6CED70E080E03E
:1001D00090E0ABDF53DF6CED70E080E090E0A5DFF6
:1001E0004DDF6FDF8823E9F36CED70E080E090E095
:1001F0009CDF809164001092640090E08130910552
:1002000011F42FDFEECF029764F338DF6CED70E06E
:1002100080E090E08ADF32DF6CED70E080E090E01B
:1002200084DF2CDF6CED70E080E090E07EDF26DF85
:06023000B1CFF894FFCFEE
:00000001FF
