:1000000009C027C115C014C013C012C011C010C050
:1000100010C00EC011241FBECFE9CDBF20E0A0E666
:10002000B0E001C01D92AD36B207E1F732D19EC1FA
:10003000E7CF1F920F920FB60F9211248F939F93C9
:10004000AF93BF938091690090916A00A0916B007B
:10005000B0916C004096A11DB11D809369009093F2
:100060006A00A0936B00B0936C00BF91AF919F9119
:100070008F910F900FBE0F901F90189581B58061E2
:1000800081BD81B5806481BD789408950F931F93DD
:100090008B019C014091690050916A0060916B0056
:1000A00070916C008091690090916A00A0916B0042
:1000B000B0916C00841B950BA60BB70B80179107B2
:1000C000A207B30778F31F910F91089581E087BBD2
:1000D00093EA9FBD83BF089590936200809361006F
:1000E0002091650030916600821B930B6FE070E0F9
:1000F00016D17093640060936300809163009091C7
:100100006400892B31F481E090E090936400809347
:100110006300809163009091640099235CF4809166
:10012000630090916400919581959109909364008A
:10013000809363000895CF93DF93CEDFC1E0D0E0DA
:10014000809161009091620040916500509166003D
:100150002091630030916400BC01641B750B621731
:10016000730724F4D0936400C0936300209165006A
:100170003091660082179307B1F1209165003091AC
:100180006600281739077CF42091630030916400E1
:100190008091650090916600820F931F9093660096
:1001A0008093650015C0209165003091660082172C
:1001B000930774F42091630030916400809165008E
:1001C00090916600821B930B90936600809365006C
:1001D000809165009091660086BF60E170E080E0EC
:1001E00090E054DFADCFDF91CF91089580E090E0B3
:1001F000A2DF10926800089591E0909368008093C8
:100200006700282F30E0280F311D280F311DC9014C
:1002100082959295907F9827807F9827820F931FD1
:100220008ADF089580916700853020F0DFDF10922B
:10023000670008958F5F80936700DEDF08958091E7
:100240006800811104C080916700D6DF0895CEDF79
:1002500008951F920F920FB60F9211248F938091E1
:1002600060008F5F809360008F910F900FBE0F90A2
:100270001F901895BA98C29A83E085BF80E48BBF1F
:10028000789408959091600081E0911101C080E020
:100290000895F4DE1BDFEEDFA9DF6CE271E080E0A1
:1002A00090E0F4DEC0E08C2FA7DF68EC70E080E027
:1002B00090E0ECDECF5FC630B1F798DFE3DF882354
:1002C000E9F36CED70E080E090E0E0DE80916000AA
:1002D0001092600090E08130910511F4B0DFEECF14
:1002E000029764F3ACDFABDFAADFA9DFCBDF8823A3
:1002F000E9F36CED70E080E090E0C8DE8091600092
:100300001092600090E08130910511F48BDFEECF08
:10031000029764F394DF93DF92DF91DFCFCF97FBF7
:10032000072E16F4009406D077FD08D00BD007FCFA
:1003300005D03EF4909581959F4F089570956195F5
:100340007F4F0895AA1BBB1B51E107C0AA1FBB1F0B
:10035000A617B70710F0A61BB70B881F991F5A9551
:10036000A9F780959095BC01CD010895F894FFCF31
:00000001FF
