S0140000696C6C756D696E6174696F6E2E73726563FB
S11300000AC064C02BC02AC029C028C027C026C08B
S11300107DC024C0370111241FBECFE9CDBF10E03D
S1130020A0E6B0E0E6E3F3E002C005900D92A63648
S1130030B107D9F720E0A6E6B0E001C01D92A138CF
S1130040B207E1F710E0CBE0D0E003C02197FE0156
S11300506AD1CA30D107D1F7A6D06BC1D1CFFC0188
S1130060628173818481958109D166BF089581E09D
S113007087BB93EA9FBD83BF089516BE109280008C
S1130080089591E09093800080937F00982F990FBA
S1130090890F982F9295907F890F86BF089580913C
S11300A07F00853020F0E9DF10927F0008958F5F94
S11300B080937F00E6DF089580918000811104C061
S11300C080917F00DEDF0895D8DF08951F920F929C
S11300D00FB60F9211248F9380917E008F5F8093CF
S11300E07E008F910F900FBE0F901F901895BA98B5
S11300F0C29A83E085BF80E48BBF78940895909181
S11301007E0081E0911101C080E008951F920F925A
S11301100FB60F9211248F939F93AF93BF93809147
S11301207A0090917B00A0917C00B0917D00409674
S1130130A11DB11D80937A0090937B00A0937C0055
S1130140B0937D00BF91AF919F918F910F900FBE9F
S11301500F901F90189581B5806181BD81B5806431
S113016081BD789408950F931F938B019C01409156
S11301707A0050917B0060917C0070917D008091A9
S11301807A0090917B00A0917C00B0917D00841B4B
S1130190950BA60BB70B80179107A207B30778F34B
S11301A01F910F910895D7DF62DFA1DF66DF6CE254
S11301B071E080E090E0D7DFC0E08C2F62DF68EC74
S11301C070E080E090E0CFDFCF5FC630B1F755DF5D
S11301D096DF8823E9F36CED70E080E090E0C3DF04
S11301E080917E0010927E0090E08130910511F4A0
S11301F063DFEECF029764F35FDF6CED70E080E0C5
S113020090E0B1DF59DF6CED70E080E090E0ABDFAF
S113021053DF6CED70E080E090E0A5DF4DDF6FDF31
S11302208823E9F36CED70E080E090E09CDF80913E
S11302307E0010927E0090E08130910511F42FDF52
S1130240EECF029764F338DF6CED70E080E090E06D
S11302508ADF32DF6CED70E080E090E084DF2CDF39
S11302606CED70E080E090E07EDF26DFB1CF84E6C5
S113027090E09093670080936600089533D088F0EF
S11302809F5790F0B92F9927B751A0F0D1F0660F7E
S1130290771F881F991F1AF0BA95C9F712C0B13099
S11302A081F03AD0B1E0089537C0672F782F8827BE
S11302B0B85F39F0B93FCCF3869577956795B395D8
S11302C0D9F73EF490958095709561957F4F8F4F47
S11302D09F4F089557FD9058440F551F59F05F3FA5
S11302E071F04795880F97FB991F61F09F3F79F054
S11302F087950895121613061406551FF2CF4695D6
S1130300F1DF08C0161617061806991FF1CF869557
S11303107105610508940895E894BB27662777273B
S1130320CB0197F90895EE0FFF1F0590F491E02D8E
S10903300994F894FFCFCC
S1090336000000002F008E
S9030000FC
