:1000000009C00EC00DC00CC00BC00AC009C008C09A
:1000100007C006C011241FBECFE9CDBF02D032C039
:10002000EFCFB89A85B7806485BF81E88FBD81E046
:1000300083BF80E090E086BFE3E9F1E13197F1F71B
:1000400000C0000001968115F1E09F07A1F787EC41
:100050009FEA0197F1F700C000008FEF90E086BFA4
:10006000E3E9F1E13197F1F700C000000197B8F73B
:100070002FEB84ED91E0215080409040E1F700C0EB
:080080000000D7CFF894FFCF78
:00000001FF
